{
  "_format": "hh-sol-artifact-1",
  "contractName": "FdContract",
  "sourceName": "contracts/FdContract.sol",
  "abi": [
    {
      "inputs": [],
      "stateMutability": "nonpayable",
      "type": "constructor"
    },
    {
      "anonymous": false,
      "inputs": [
        {
          "indexed": true,
          "internalType": "uint256",
          "name": "_id",
          "type": "uint256"
        }
      ],
      "name": "issuePolicy",
      "type": "event"
    },
    {
      "anonymous": false,
      "inputs": [
        {
          "indexed": true,
          "internalType": "uint256",
          "name": "_id",
          "type": "uint256"
        }
      ],
      "name": "submitNewPolicy",
      "type": "event"
    },
    {
      "inputs": [],
      "name": "getPolicies",
      "outputs": [
        {
          "components": [
            {
              "internalType": "uint256",
              "name": "id",
              "type": "uint256"
            },
            {
              "internalType": "address",
              "name": "policyholder",
              "type": "address"
            },
            {
              "internalType": "address",
              "name": "insurer",
              "type": "address"
            },
            {
              "internalType": "uint256",
              "name": "riskFactor",
              "type": "uint256"
            },
            {
              "internalType": "uint256",
              "name": "premium",
              "type": "uint256"
            },
            {
              "internalType": "uint256",
              "name": "maxClaimAmount",
              "type": "uint256"
            },
            {
              "internalType": "enum FdContract.Status",
              "name": "flightStatus",
              "type": "uint8"
            },
            {
              "internalType": "enum FdContract.DelayTime",
              "name": "delayTime",
              "type": "uint8"
            }
          ],
          "internalType": "struct FdContract.Policy[]",
          "name": "",
          "type": "tuple[]"
        }
      ],
      "stateMutability": "view",
      "type": "function"
    },
    {
      "inputs": [
        {
          "internalType": "uint256",
          "name": "_id",
          "type": "uint256"
        }
      ],
      "name": "insurePolicy",
      "outputs": [],
      "stateMutability": "payable",
      "type": "function"
    },
    {
      "inputs": [
        {
          "internalType": "uint256",
          "name": "_riskFactor",
          "type": "uint256"
        }
      ],
      "name": "newPolicy",
      "outputs": [],
      "stateMutability": "payable",
      "type": "function"
    },
    {
      "inputs": [
        {
          "internalType": "uint256",
          "name": "",
          "type": "uint256"
        }
      ],
      "name": "policies",
      "outputs": [
        {
          "internalType": "uint256",
          "name": "id",
          "type": "uint256"
        },
        {
          "internalType": "address",
          "name": "policyholder",
          "type": "address"
        },
        {
          "internalType": "address",
          "name": "insurer",
          "type": "address"
        },
        {
          "internalType": "uint256",
          "name": "riskFactor",
          "type": "uint256"
        },
        {
          "internalType": "uint256",
          "name": "premium",
          "type": "uint256"
        },
        {
          "internalType": "uint256",
          "name": "maxClaimAmount",
          "type": "uint256"
        },
        {
          "internalType": "enum FdContract.Status",
          "name": "flightStatus",
          "type": "uint8"
        },
        {
          "internalType": "enum FdContract.DelayTime",
          "name": "delayTime",
          "type": "uint8"
        }
      ],
      "stateMutability": "view",
      "type": "function"
    },
    {
      "inputs": [
        {
          "internalType": "uint256",
          "name": "_id",
          "type": "uint256"
        },
        {
          "internalType": "enum FdContract.DelayTime",
          "name": "randomDelayTime",
          "type": "uint8"
        }
      ],
      "name": "setPolicyOutcome",
      "outputs": [],
      "stateMutability": "payable",
      "type": "function"
    },
    {
      "inputs": [
        {
          "internalType": "address",
          "name": "",
          "type": "address"
        }
      ],
      "name": "withdrawalAmount",
      "outputs": [
        {
          "internalType": "uint256",
          "name": "",
          "type": "uint256"
        }
      ],
      "stateMutability": "view",
      "type": "function"
    }
  ],
  "bytecode": "0x6080604052600560015534801561001557600080fd5b506000600260060160016101000a81548160ff02191690836004811115610065577f4e487b7100000000000000000000000000000000000000000000000000000000600052602160045260246000fd5b021790555060028060060160006101000a81548160ff021916908360028111156100b8577f4e487b7100000000000000000000000000000000000000000000000000000000600052602160045260246000fd5b02179055506120df806100cc6000396000f3fe6080604052600436106100555760003560e01c80631bec35411461005a5780633b04f6f11461007657806376a1ed7d146100a15780639864e40c146100bd578063d3e89483146100d9578063daa91f2e1461011d575b600080fd5b610074600480360381019061006f9190611b31565b61015a565b005b34801561008257600080fd5b5061008b6105b1565b6040516100989190611d27565b60405180910390f35b6100bb60048036038101906100b69190611b31565b6107f3565b005b6100d760048036038101906100d29190611b5a565b610d04565b005b3480156100e557600080fd5b5061010060048036038101906100fb9190611b31565b6117e9565b604051610114989796959493929190611d64565b60405180910390f35b34801561012957600080fd5b50610144600480360381019061013f9190611b08565b61189b565b6040516101519190611d49565b60405180910390f35b6000600260405180610100016040529081600082015481526020016001820160009054906101000a900473ffffffffffffffffffffffffffffffffffffffff1673ffffffffffffffffffffffffffffffffffffffff1673ffffffffffffffffffffffffffffffffffffffff1681526020016002820160009054906101000a900473ffffffffffffffffffffffffffffffffffffffff1673ffffffffffffffffffffffffffffffffffffffff1673ffffffffffffffffffffffffffffffffffffffff1681526020016003820154815260200160048201548152602001600582015481526020016006820160009054906101000a900460ff166002811115610289577f4e487b7100000000000000000000000000000000000000000000000000000000600052602160045260246000fd5b60028111156102c1577f4e487b7100000000000000000000000000000000000000000000000000000000600052602160045260246000fd5b81526020016006820160019054906101000a900460ff166004811115610310577f4e487b7100000000000000000000000000000000000000000000000000000000600052602160045260246000fd5b6004811115610348577f4e487b7100000000000000000000000000000000000000000000000000000000600052602160045260246000fd5b81525050905060016009805490506103609190611e1b565b816000018181525050818160600181815250503481608001818152505033816020019073ffffffffffffffffffffffffffffffffffffffff16908173ffffffffffffffffffffffffffffffffffffffff1681525050612710816060015160015483608001516103cf9190611ea2565b6103d99190611ea2565b6103e39190611e71565b8160a001818152505060098190806001815401808255809150506001900390600052602060002090600702016000909190919091506000820151816000015560208201518160010160006101000a81548173ffffffffffffffffffffffffffffffffffffffff021916908373ffffffffffffffffffffffffffffffffffffffff16021790555060408201518160020160006101000a81548173ffffffffffffffffffffffffffffffffffffffff021916908373ffffffffffffffffffffffffffffffffffffffff160217905550606082015181600301556080820151816004015560a0820151816005015560c08201518160060160006101000a81548160ff0219169083600281111561051f577f4e487b7100000000000000000000000000000000000000000000000000000000600052602160045260246000fd5b021790555060e08201518160060160016101000a81548160ff02191690836004811115610575577f4e487b7100000000000000000000000000000000000000000000000000000000600052602160045260246000fd5b0217905550505080600001517f6383756a848f6ad1d72e56f6c832455dfb8770dc7e42307cbedb1886f6530ad060405160405180910390a25050565b60606009805480602002602001604051908101604052809291908181526020016000905b828210156107ea578382906000526020600020906007020160405180610100016040529081600082015481526020016001820160009054906101000a900473ffffffffffffffffffffffffffffffffffffffff1673ffffffffffffffffffffffffffffffffffffffff1673ffffffffffffffffffffffffffffffffffffffff1681526020016002820160009054906101000a900473ffffffffffffffffffffffffffffffffffffffff1673ffffffffffffffffffffffffffffffffffffffff1673ffffffffffffffffffffffffffffffffffffffff1681526020016003820154815260200160048201548152602001600582015481526020016006820160009054906101000a900460ff166002811115610718577f4e487b7100000000000000000000000000000000000000000000000000000000600052602160045260246000fd5b6002811115610750577f4e487b7100000000000000000000000000000000000000000000000000000000600052602160045260246000fd5b81526020016006820160019054906101000a900460ff16600481111561079f577f4e487b7100000000000000000000000000000000000000000000000000000000600052602160045260246000fd5b60048111156107d7577f4e487b7100000000000000000000000000000000000000000000000000000000600052602160045260246000fd5b81525050815260200190600101906105d5565b50505050905090565b60006001826108029190611efc565b9050600060098281548110610840577f4e487b7100000000000000000000000000000000000000000000000000000000600052603260045260246000fd5b906000526020600020906007020160405180610100016040529081600082015481526020016001820160009054906101000a900473ffffffffffffffffffffffffffffffffffffffff1673ffffffffffffffffffffffffffffffffffffffff1673ffffffffffffffffffffffffffffffffffffffff1681526020016002820160009054906101000a900473ffffffffffffffffffffffffffffffffffffffff1673ffffffffffffffffffffffffffffffffffffffff1673ffffffffffffffffffffffffffffffffffffffff1681526020016003820154815260200160048201548152602001600582015481526020016006820160009054906101000a900460ff166002811115610979577f4e487b7100000000000000000000000000000000000000000000000000000000600052602160045260246000fd5b60028111156109b1577f4e487b7100000000000000000000000000000000000000000000000000000000600052602160045260246000fd5b81526020016006820160019054906101000a900460ff166004811115610a00577f4e487b7100000000000000000000000000000000000000000000000000000000600052602160045260246000fd5b6004811115610a38577f4e487b7100000000000000000000000000000000000000000000000000000000600052602160045260246000fd5b815250509050600034905083826000015114610a5357600080fd5b600073ffffffffffffffffffffffffffffffffffffffff16826040015173ffffffffffffffffffffffffffffffffffffffff1614610a9057600080fd5b3373ffffffffffffffffffffffffffffffffffffffff16826020015173ffffffffffffffffffffffffffffffffffffffff161415610acd57600080fd5b808260a0015114610add57600080fd5b33826040019073ffffffffffffffffffffffffffffffffffffffff16908173ffffffffffffffffffffffffffffffffffffffff1681525050808260a00181815250508160098481548110610b5a577f4e487b7100000000000000000000000000000000000000000000000000000000600052603260045260246000fd5b90600052602060002090600702016000820151816000015560208201518160010160006101000a81548173ffffffffffffffffffffffffffffffffffffffff021916908373ffffffffffffffffffffffffffffffffffffffff16021790555060408201518160020160006101000a81548173ffffffffffffffffffffffffffffffffffffffff021916908373ffffffffffffffffffffffffffffffffffffffff160217905550606082015181600301556080820151816004015560a0820151816005015560c08201518160060160006101000a81548160ff02191690836002811115610c6f577f4e487b7100000000000000000000000000000000000000000000000000000000600052602160045260246000fd5b021790555060e08201518160060160016101000a81548160ff02191690836004811115610cc5577f4e487b7100000000000000000000000000000000000000000000000000000000600052602160045260246000fd5b021790555090505081600001517f823b875f07bf62771e7679864fc8236855a4d26bad71850effb14552b9e0fbdd60405160405180910390a250505050565b6000600183610d139190611efc565b9050600060098281548110610d51577f4e487b7100000000000000000000000000000000000000000000000000000000600052603260045260246000fd5b906000526020600020906007020160405180610100016040529081600082015481526020016001820160009054906101000a900473ffffffffffffffffffffffffffffffffffffffff1673ffffffffffffffffffffffffffffffffffffffff1673ffffffffffffffffffffffffffffffffffffffff1681526020016002820160009054906101000a900473ffffffffffffffffffffffffffffffffffffffff1673ffffffffffffffffffffffffffffffffffffffff1673ffffffffffffffffffffffffffffffffffffffff1681526020016003820154815260200160048201548152602001600582015481526020016006820160009054906101000a900460ff166002811115610e8a577f4e487b7100000000000000000000000000000000000000000000000000000000600052602160045260246000fd5b6002811115610ec2577f4e487b7100000000000000000000000000000000000000000000000000000000600052602160045260246000fd5b81526020016006820160019054906101000a900460ff166004811115610f11577f4e487b7100000000000000000000000000000000000000000000000000000000600052602160045260246000fd5b6004811115610f49577f4e487b7100000000000000000000000000000000000000000000000000000000600052602160045260246000fd5b8152505090506000600280811115610f8a577f4e487b7100000000000000000000000000000000000000000000000000000000600052602160045260246000fd5b8260c001516002811115610fc7577f4e487b7100000000000000000000000000000000000000000000000000000000600052602160045260246000fd5b14610fd157600080fd5b6000600481111561100b577f4e487b7100000000000000000000000000000000000000000000000000000000600052602160045260246000fd5b846004811115611044577f4e487b7100000000000000000000000000000000000000000000000000000000600052602160045260246000fd5b14156110cc5760008260c001906002811115611089577f4e487b7100000000000000000000000000000000000000000000000000000000600052602160045260246000fd5b908160028111156110c3577f4e487b7100000000000000000000000000000000000000000000000000000000600052602160045260246000fd5b815250506111d1565b60018260c00190600281111561110b577f4e487b7100000000000000000000000000000000000000000000000000000000600052602160045260246000fd5b90816002811115611145577f4e487b7100000000000000000000000000000000000000000000000000000000600052602160045260246000fd5b81525050611152846118b3565b9050838260e001906004811115611192577f4e487b7100000000000000000000000000000000000000000000000000000000600052602160045260246000fd5b908160048111156111cc577f4e487b7100000000000000000000000000000000000000000000000000000000600052602160045260246000fd5b815250505b60028081111561120a577f4e487b7100000000000000000000000000000000000000000000000000000000600052602160045260246000fd5b8260c001516002811115611247577f4e487b7100000000000000000000000000000000000000000000000000000000600052602160045260246000fd5b141580156112855750600073ffffffffffffffffffffffffffffffffffffffff16826040015173ffffffffffffffffffffffffffffffffffffffff16145b156112ec578160800151600080846020015173ffffffffffffffffffffffffffffffffffffffff1673ffffffffffffffffffffffffffffffffffffffff16815260200190815260200160002060008282546112e09190611e1b565b9250508190555061151a565b60016002811115611326577f4e487b7100000000000000000000000000000000000000000000000000000000600052602160045260246000fd5b8260c001516002811115611363577f4e487b7100000000000000000000000000000000000000000000000000000000600052602160045260246000fd5b14156114ac576127108260600151600a8385608001516113839190611ea2565b61138d9190611e71565b6113979190611ea2565b6113a19190611e71565b600080846020015173ffffffffffffffffffffffffffffffffffffffff1673ffffffffffffffffffffffffffffffffffffffff16815260200190815260200160002060008282546113f29190611e1b565b925050819055506127108260600151600a8385608001516114139190611ea2565b61141d9190611e71565b6114279190611ea2565b6114319190611e71565b82608001518360a001516114459190611e1b565b61144f9190611efc565b600080846040015173ffffffffffffffffffffffffffffffffffffffff1673ffffffffffffffffffffffffffffffffffffffff16815260200190815260200160002060008282546114a09190611e1b565b92505081905550611519565b8160a0015182608001516114c09190611e1b565b600080846040015173ffffffffffffffffffffffffffffffffffffffff1673ffffffffffffffffffffffffffffffffffffffff16815260200190815260200160002060008282546115119190611e1b565b925050819055505b5b816020015173ffffffffffffffffffffffffffffffffffffffff166108fc600080856020015173ffffffffffffffffffffffffffffffffffffffff1673ffffffffffffffffffffffffffffffffffffffff168152602001908152602001600020549081150290604051600060405180830381858888f193505050501580156115a6573d6000803e3d6000fd5b50816040015173ffffffffffffffffffffffffffffffffffffffff166108fc600080856040015173ffffffffffffffffffffffffffffffffffffffff1673ffffffffffffffffffffffffffffffffffffffff168152602001908152602001600020549081150290604051600060405180830381858888f19350505050158015611633573d6000803e3d6000fd5b50816009848154811061166f577f4e487b7100000000000000000000000000000000000000000000000000000000600052603260045260246000fd5b90600052602060002090600702016000820151816000015560208201518160010160006101000a81548173ffffffffffffffffffffffffffffffffffffffff021916908373ffffffffffffffffffffffffffffffffffffffff16021790555060408201518160020160006101000a81548173ffffffffffffffffffffffffffffffffffffffff021916908373ffffffffffffffffffffffffffffffffffffffff160217905550606082015181600301556080820151816004015560a0820151816005015560c08201518160060160006101000a81548160ff02191690836002811115611784577f4e487b7100000000000000000000000000000000000000000000000000000000600052602160045260246000fd5b021790555060e08201518160060160016101000a81548160ff021916908360048111156117da577f4e487b7100000000000000000000000000000000000000000000000000000000600052602160045260246000fd5b02179055509050505050505050565b600981815481106117f957600080fd5b90600052602060002090600702016000915090508060000154908060010160009054906101000a900473ffffffffffffffffffffffffffffffffffffffff16908060020160009054906101000a900473ffffffffffffffffffffffffffffffffffffffff16908060030154908060040154908060050154908060060160009054906101000a900460ff16908060060160019054906101000a900460ff16905088565b60006020528060005260406000206000915090505481565b60008060009050600060048111156118f4577f4e487b7100000000000000000000000000000000000000000000000000000000600052602160045260246000fd5b83600481111561192d577f4e487b7100000000000000000000000000000000000000000000000000000000600052602160045260246000fd5b14611ac0576001600481111561196c577f4e487b7100000000000000000000000000000000000000000000000000000000600052602160045260246000fd5b8360048111156119a5577f4e487b7100000000000000000000000000000000000000000000000000000000600052602160045260246000fd5b14156119b45760149050611abf565b600260048111156119ee577f4e487b7100000000000000000000000000000000000000000000000000000000600052602160045260246000fd5b836004811115611a27577f4e487b7100000000000000000000000000000000000000000000000000000000600052602160045260246000fd5b1415611a3657601e9050611abe565b60036004811115611a70577f4e487b7100000000000000000000000000000000000000000000000000000000600052602160045260246000fd5b836004811115611aa9577f4e487b7100000000000000000000000000000000000000000000000000000000600052602160045260246000fd5b1415611ab85760289050611abd565b603c90505b5b5b5b80915050919050565b600081359050611ad88161206b565b92915050565b600081359050611aed81612082565b92915050565b600081359050611b0281612092565b92915050565b600060208284031215611b1a57600080fd5b6000611b2884828501611ac9565b91505092915050565b600060208284031215611b4357600080fd5b6000611b5184828501611af3565b91505092915050565b60008060408385031215611b6d57600080fd5b6000611b7b85828601611af3565b9250506020611b8c85828601611ade565b9150509250929050565b6000611ba28383611c67565b6101008301905092915050565b611bb881611f30565b82525050565b611bc781611f30565b82525050565b6000611bd882611df2565b611be28185611e0a565b9350611bed83611de2565b8060005b83811015611c1e578151611c058882611b96565b9750611c1083611dfd565b925050600181019050611bf1565b5085935050505092915050565b611c3481611f92565b82525050565b611c4381611f92565b82525050565b611c5281611fa4565b82525050565b611c6181611fa4565b82525050565b61010082016000820151611c7e6000850182611d09565b506020820151611c916020850182611baf565b506040820151611ca46040850182611baf565b506060820151611cb76060850182611d09565b506080820151611cca6080850182611d09565b5060a0820151611cdd60a0850182611d09565b5060c0820151611cf060c0850182611c49565b5060e0820151611d0360e0850182611c2b565b50505050565b611d1281611f88565b82525050565b611d2181611f88565b82525050565b60006020820190508181036000830152611d418184611bcd565b905092915050565b6000602082019050611d5e6000830184611d18565b92915050565b600061010082019050611d7a600083018b611d18565b611d87602083018a611bbe565b611d946040830189611bbe565b611da16060830188611d18565b611dae6080830187611d18565b611dbb60a0830186611d18565b611dc860c0830185611c58565b611dd560e0830184611c3a565b9998505050505050505050565b6000819050602082019050919050565b600081519050919050565b6000602082019050919050565b600082825260208201905092915050565b6000611e2682611f88565b9150611e3183611f88565b9250827fffffffffffffffffffffffffffffffffffffffffffffffffffffffffffffffff03821115611e6657611e65611fb6565b5b828201905092915050565b6000611e7c82611f88565b9150611e8783611f88565b925082611e9757611e96611fe5565b5b828204905092915050565b6000611ead82611f88565b9150611eb883611f88565b9250817fffffffffffffffffffffffffffffffffffffffffffffffffffffffffffffffff0483118215151615611ef157611ef0611fb6565b5b828202905092915050565b6000611f0782611f88565b9150611f1283611f88565b925082821015611f2557611f24611fb6565b5b828203905092915050565b6000611f3b82611f68565b9050919050565b6000819050611f5082612043565b919050565b6000819050611f6382612057565b919050565b600073ffffffffffffffffffffffffffffffffffffffff82169050919050565b6000819050919050565b6000611f9d82611f42565b9050919050565b6000611faf82611f55565b9050919050565b7f4e487b7100000000000000000000000000000000000000000000000000000000600052601160045260246000fd5b7f4e487b7100000000000000000000000000000000000000000000000000000000600052601260045260246000fd5b7f4e487b7100000000000000000000000000000000000000000000000000000000600052602160045260246000fd5b6005811061205457612053612014565b5b50565b6003811061206857612067612014565b5b50565b61207481611f30565b811461207f57600080fd5b50565b6005811061208f57600080fd5b50565b61209b81611f88565b81146120a657600080fd5b5056fea2646970667358221220065f51cc93c6d2fd467934072222574c60692b2b1edc1e519eec544e4e41570864736f6c63430008040033",
  "linkReferences": {},
  "deployedLinkReferences": {}
}